:020000040000FA
:100000006802001081010000890100008B010000DE
:100010008D0100008F010000910100000000000030
:10002000000000000000000000000000930100003C
:1000300095010000000000009701000099010000F8
:100040009B0100009B0100009B0100009B01000040
:100050009B0100009B0100009B0100009B01000030
:100060009B0100009B0100009B0100009B01000020
:100070009B0100009B0100009B0100009B01000010
:100080009B0100009B0100009B0100009B01000000
:100090009B0100009B0100009B0100009B010000F0
:1000A0009B0100009B0100009B0100009B010000E0
:1000B0009B0100009B0100009B0100009B010000D0
:1000C0009B0100009B0100009B01000000F002F872
:1000D00000F047F80AA090E8000C82448344AAF19B
:1000E0000107DA4501D100F03CF8AFF2090EBAE899
:1000F0000F0013F0010F18BFFB1A43F0010318475C
:10010000181C0000381C0000103A24BF78C878C1C1
:10011000FAD8520724BF30C830C144BF04680C600D
:10012000704700000023002400250026103A28BF55
:1001300078C1FBD8520728BF30C148BF0B60704759
:10014000662900F0D880002070471FB500F06CF8D9
:1001500004000020002101F0A1FBE0601FBD10B5EC
:1001600010BD00F02BFC1146FFF7EFFF01F0AEFAD7
:1001700000F0A8F803B4FFF7F2FF03BC00F0ACF8FE
:100180000948804709480047FEE7FEE7FEE7FEE72B
:10019000FEE7FEE7FEE7FEE7FEE7FEE70448054967
:1001A000034A054B704700007D130000CD0000009E
:1001B0006800001068020010680000100FB41CB541
:1001C000074B06AA7B4469460090059800F013F897
:1001D0000020694600F022F81CBC5DF814FB00000A
:1001E00055000000704770477047000001694A1CC5
:1001F00002610878704700B58FB0CDE90131002168
:10020000059105497944CDE903101146684600F08F
:1002100077F80FB000BD0000E5FFFFFF0A6802F8A5
:10022000010B0A607047000000487047240000106E
:1002300030B5B0F10A024FEA900E71F100034EEAB8
:10024000817EB0EB0E0061EB91014FEA101E4EEA89
:10025000017E10EB0E0041EB11114FEA102E4EEA19
:10026000016E10EB0E0041EB11214FEA104E4EEAE9
:10027000014E10EB0E0041EB1141401841F100011D
:100280004FEAD00040EA41704FEAD10110EB8005FF
:100290004FEA810444EA907444EB01046D1944EB85
:1002A0000404521BA3414FF0000348BF0A3200D59B
:1002B00030BD401C41F1000130BD000000487047D6
:1002C0000400001010B50446AFF300802046BDE8DE
:1002D0001040FFF74FBF000001491820ABBEFEE7FA
:1002E000260002007047024602F1100050F821304B
:1002F000C3F30B10704700F078B90000FFFFFFFF59
:100300002DE9F05F894604464FF0000ADFF824B17A
:10031000FB44C0F820A02046E168884700287DD033
:10032000252806D0D4E901219047206A401C20628C
:10033000F1E700255F462046E16888472028064609
:1003400007DB312E05D2B81910F8200C08B105438F
:10035000F1E7A80701D525F00405C4F81CA0002783
:10036000C4F818A02A2E09D0304601F0BBF838B3E3
:1003700004EB8708303EC8F8186019E059F8041BF0
:10038000204604EB87029161E1688847012F064609
:1003900018D1E069002820DA25F020051DE0D8F802
:1003A000180000EB800006EB40003038C8F8180059
:1003B0002046E1688847064601F094F80028EED10F
:1003C000012F0AD02E2E08D12046E16888477F1CD5
:1003D0000646022F45F02005C4DBA069002803DA99
:1003E000404245F00105A061E80701D025F0100565
:1003F000A6B1A6F14100192802D8203645F40065BF
:100400004A463146204625604D46FFF799FE60B1C9
:10041000012807D0ED1D25F0070000E007E000F1FE
:10042000080978E705F1040975E730467AE7206A9C
:10043000BDE8F09F5C19000070472DE9FF4F0C46A6
:100440001E464FF0FF378BB0D2E90001DDF8608027
:100450000A908A46C1F30A5505B93D46002108466F
:100460004FF00000BAF1000F00F4400005DA00EB95
:1004700080004FF4400101EA50004FEA9059B9F171
:10048000010F00DDB9460A9850EA4A000ED044F642
:100490001050A5F2FF3545432F14B8F1000F1ED0C0
:1004A0007542291E1EDDC9F100021CE0B8F1010FE2
:1004B0004FF0000001D0302103E0F24305E0215469
:1004C000401CB042FBDB30460022002121540B9936
:1004D000C1F80880C1E900200FB0BDE8F08FBD1B56
:1004E0006D1CDEE74A4600DA694206A800F0F4F91E
:1004F00006AB93E8070003AB83E8070050460A9970
:1005000000F0C2FA8DE80700A0F500501F380090F7
:100510000398002D0ADD42F21F014A4608440023D9
:1005200003A90390684600F02BFD09E0A0F50050F8
:100530004A461F38002303A90390684600F035FDA2
:100540008DE807000004000C03D04FF0FF30410895
:1005500000E01046B8F1000F03D0002200921546CB
:100560001EE0751E05D4FFF763FE303262556D1E26
:10057000F9D5B3460122084302D000227F1C04E0D3
:100580002078302801D100227F1E002A099784D0CC
:100590001DE0112D07DAFFF74BFE303262556D1C5E
:1005A00050EA0102F5D1084302D00098C8B10EE02C
:1005B0000021681E05E0235C625C63542254401EE7
:1005C000491C8142F7DBAB46A81B401E0990002066
:1005D00004F80B000B98099AC0F80880C0E9002BBA
:1005E0007AE711264FF0000857E72DE9F04F8846CB
:1005F0000446D21D22F0070191B0D1E90001CDE9F6
:100600000A0100F05BFF02460B98C00F01D02D20BD
:1006100007E02068810701D52B2002E0202101EAB4
:10062000C000032A099001D0072A05DB0346414692
:10063000204600F011F90BE12078800601D5E06931
:1006400000E00620B8F1650F814606D0B8F1660FCC
:1006500018D0B8F1670F70D131E00020B9F1110F57
:10066000009001DB112301E009F101030AAA01A9AD
:100670000CA8FFF7E2FEDDE90C70002609F1010588
:10068000834647E001204B4600904FF000470AAAFE
:1006900001A90CA8FFF7D1FEDDE90DB00C995D466C
:1006A000002610B909F101000D18B9EB050003D4BB
:1006B000C0F1FF3609F10105A5EB09002BE0B9F106
:1006C000010F01DA4FF001090020B9F1110F00907C
:1006D000484601DD112300E003460AAA01A90CA83F
:1006E000FFF7ABFEDDE90C704D460026834620780F
:1006F00000070AD4AB4500DA5D4601A8012D04DDF0
:10070000411911F8011C302907D04F4502DA17F1C1
:10071000040F04DA012082460FE06D1EEEE7002F81
:1007200002DCED1B3E4403E0781CA84200DD7D1C8A
:10073000B81B00F1010A4FF000472078000703D4EE
:10074000AA4501DB4FF0FF3A0021B7F1004F0DF150
:1007500043088DF8431024D002202B23002F01DA08
:100760007F422D230A21021EA0F1010000DC5FB1AF
:1007700097FBF1FC97FBF1F201FB1C7C17460CF197
:10078000300C08F801CDEEE7A8F1010003702188D4
:10079000090501D5452100E06521A0F1010800F817
:1007A000011C09980FA9A1EB0807FF1D00B101204A
:1007B000411901EBEA70A1693844081A401EA06192
:1007C0002078C00602D42046AFF30080099828B1F3
:1007D000D4E901219047206A401C20622078C0069D
:1007E00022D52046AFF300801EE0002E04DBB34587
:1007F00002DD01A8805D00E03020D4E901219047AE
:10080000206A401C2062761CAAF101005FEA000AFF
:100810000AD1FFF709FDC0680168405CD4E90121F5
:100820009047206A401C2062281EA5F10105DCDCEF
:1008300007E0D4E9012118F8010B9047206A401C19
:100840002062381EA7F10107F3DC2046AFF30080D9
:10085000032011B041E600002DE9F0411F46044697
:1008600003260168072A01F4006004DB08B116A51D
:1008700005E016A503E008B115A500E015A521F0D7
:1008800010002060A069C01EA0610FB1401EA061D1
:100890002046AFF300804FB1D4E90121384690479C
:1008A000206A401C2062C01C206206E0206AFAE731
:1008B000D4E9012115F8010B9047761EF8D22046A5
:1008C000AFF30080BDE8F0814E414E006E616E00D6
:1008D000494E4600696E66002DE9F047814616468E
:1008E0008AB0354878440DC88DE80D003248784408
:1008F000801C03AC0DC884E80D0041F69B30084411
:10090000372190FBF1F290FBF1F5A5F1800501FB99
:1009100012041B3C02D56442012000E00020DFF8F5
:1009200098A080460027FA44AAF1BE0A0EE0E0072C
:100930000AD03246684607EB470101230AEB8101E2
:1009400000F033FB8DE8070064107F1C002CEED113
:10095000194F7F44AE3F19E0E80715D007EB0410AC
:100960000DF1180A90E80E008AE80E00C068F04207
:1009700001D1981908903246012306A903A800F076
:1009800014FB03AB83E807006D10641C002DE3D15A
:100990004FF0010332466946B8F1000F03A802D0B8
:1009A00000F0EEFA01E000F000FBC9E90001C9F82F
:1009B00008200AB0BDE8F087181400007546FFF75C
:1009C0007DFCAE4605006946534620F0070085468B
:1009D00018B020B5FFF7E2FBBDE820404FF000065D
:1009E0004FF000074FF000084FF0000B21F0070117
:1009F000AC46ACE8C009ACE8C009ACE8C009ACE85A
:100A0000C0098D46704700004FF0013C50F8042BA0
:100A100051F8043B9A4221D1A2EB0C03934313EA11
:100A2000CC1317D150F8042B51F8043B9A4215D13E
:100A3000A2EB0C03934313EACC130BD150F8042B15
:100A400051F8043B9A4209D1A2EB0C03934313EAF9
:100A5000CC13DBD04FF00000704700BFD01A01BAB2
:100A6000B1FA81F101F0180122FA01F0CB40C1F195
:100A70002001DBB2C0B2C01A2CFA01F3D11A9143A3
:100A800011EAC311E6D170475FEA400C08BF91F04C
:100A9000000F4FEA8C234FEAC12243EA51514FEA3B
:100AA0001C5018BF00F5F0404FEA300018BF41F06D
:100AB00000415FEA6C5C00F02980BCF1FF3F08BF99
:100AC00040F080407047130C06BF12044FF0100C2A
:100AD0004FF0000C130E04BF12020CF1080C130FA0
:100AE00004BF12010CF1040C930F04BF92000CF12F
:100AF000020CD30F04BF52000CF1010C11464FF051
:100B00000002A0F11F00A0EB0C00704711F0004F95
:100B100008BF704731F000413FF4D5AF0B0C06BF62
:100B200009044FF0100C4FF0000C0B0E04BF09022B
:100B30000CF1080C0B0F04BF09010CF1040C8B0F16
:100B400004BF89000CF1020CCB0F04BF49000CF16B
:100B5000010CCCF12003A0EB0C0022FA03F302FA03
:100B60000CF241EA030100F10100704720F07F4CD4
:100B700080EA030023F07F47ACEB070303F57C53C7
:100B800000F0004003F1FF032DE980494FEA154BC7
:100B900009B44FEA144325EA0B4E24EA03480FF246
:100BA000042606EB132749083E785FEA320203FB6E
:100BB0000667C7F5000707FB06F64FEA54374FEA0A
:100BC000D64606F1020607FB066CCCF1005C4FEA44
:100BD0001C472CEA074C07FB06F40CFB06F504EB5C
:100BE00015464FEA961634BF00204FF000404FEAFA
:100BF000D13706FB07FC4FEA1C4C0CFB0BF7D21B52
:100C000003FB0CF761EB07010CFB0EF7B0EB0740A1
:100C100072EB17420CFB08F734BFA2EB0742B2EBB2
:100C2000074261EB17414FEA0C444FEA910706FB7C
:100C300007FC4FEA1C4C0CFB0BF7B0EBC74072EB08
:100C4000573203FB0CF734BFA2EBC742B2EBC742EB
:100C500061EB57310CFB0EF7B0EBC70072EB57722C
:100C60000CFB08F734BFA2EBC702B2EBC70261EB83
:100C70005771039F4FEA816141EA921104EBCC0462
:100C80004FEAD1374FEA826206FB07FC42EA901234
:100C90004FEA80604FEA1C4C0CFB0BF7D21B03FBA6
:100CA0000CF761EB07010CFB0EF7B0EB074072EBA2
:100CB00017420CFB08F734BFA2EB0742B2EB074226
:100CC00061EB17414FEA8C554FEA910704EB9C24E6
:100CD00006FB07FC4FEA1C4C0CFB0BF7B0EBC740C4
:100CE00072EB573203FB0CF734BFA2EBC742B2EBF7
:100CF000C74261EB57310CFB0EF7B0EBC70072EB4C
:100D000057720CFB08F734BFA2EBC702B2EBC70265
:100D100061EB577115EB4C254FEA816141EA921165
:100D20004FEA82624FEAD13742EA901206FB07FC93
:100D300044F100044FEA80604FEA1C4C0CFB0BF7B7
:100D4000D21B03FB0CF761EB07010CFB0EF7B0EBBA
:100D5000074072EB17420CFB08F734BFA2EB0742C7
:100D6000B2EB074261EB174115EB1C154FEA8131DD
:100D700041EA92414FEA823242EA90424FEA8030A1
:100D80004FEA0C7644F1000448EA03434EEA0B486C
:100D90004FF0000EB2EB080C71EB030724BF624664
:100DA00039464EEB0E0E4FF0000B001852414941F0
:100DB0004BEB0B0BB2EB080C71EB03077BF1000B59
:100DC00024BF624639464EEB0E0E4FF0000B001862
:100DD000524149414BEB0B0BB2EB080C71EB030793
:100DE0007BF1000B24BF624639464EEB0E0E51EAF2
:100DF000020718BF46F0010616EB0E7655F1000209
:100E000054F1000103D5BDE88901BDE80088BDE8C3
:100E10008901BDE80048B619524141EB0101A3F137
:100E20000103704780807F7E7D7C7B7A797877763E
:100E300076757473727171706F6E6E6D6C6C6B6AB7
:100E40006A69686867666665646463636261616055
:100E5000605F5F5E5E5D5D5C5C5B5B5A5A595958D2
:100E6000585757565655555554545353525252513C
:100E7000515050504F4F4F4E4E4D4D4D4C4C4C4B92
:100E80004B4B4A4A4A4949494848484747474746D9
:100E90004646454545444444444343434342424215
:100EA00042414141002B9C4630D477002BD01CB5E9
:100EB0004FEA370703B44FF010004FF01001BAF1BA
:100EC000000F06D0BCF1000FDCBF40F0080040F07E
:100ED00008014FF000000FBCBDE810400BF1010B02
:100EE000BBF1010F08BF5FEA170722BF12F1010231
:100EF00011F101014FF0004143F1000300F0004007
:100F000043EA00007047F9D35708D0E746EA06469F
:100F100013F1400F4FEA16461FDD13F1200FDFBF1C
:100F200016430A46002120335B42BED0C3F120079E
:100F300046EA064602FA07F74FEA164646EA070669
:100F4000C3F1200722FA03F201FA07F721FA03F1AD
:100F50004FF0000342EA0702A7E746EA020646EA24
:100F600006464FEA164646EA0106BCBF46EA064672
:100F7000360C4FF000034FF000024FF0000194E7F1
:100F80002DE9804C9A46934670B491E8380007C822
:100F900031EA400C48BF34EA430C03D5FFF7E6FDC5
:100FA000FFF780FFF0BCBDE8008C2DE9804C9A462D
:100FB000934670B491E8380007C810F0804F08BF1E
:100FC00013F0804F03D100F005F8FFF76BFFF0BC82
:100FD000BDE8008C20F07F4780EA030023F07F4CBF
:100FE00007EB0C03A3F57C5300F00040A3F1FE03D4
:100FF00092F0000F00F0B38095F0000F00F07780C2
:101000002DE901494FEA11404FEA144621EA004810
:1010100000FB06FC24EA064708FB06F607FB08F877
:1010200000FB07F718EB06484CEB164C4FEA124B47
:1010300018EB07484FEA15464CEB174022EA0B4ED7
:101040000BFB06FC25EA06470EFB06F607FB0EFE29
:101050000BFB07F71EEB064E4CEB164C4FF0000651
:101060001EEB074E4CEB174B18EB0B0840F1000042
:1010700018EB0E0B58EB000840F100008F1A4FF0F0
:1010800000013CBFC943661B14BFB5EB040C002133
:101090003CBFC943F61B4FEA17444EEA8E0E27EABF
:1010A00004454FEA1C4704FB07622CEA074C05FB8A
:1010B00007F70CFB05F604FB0CFC16EB074642EBAE
:1010C000174216EB0C4642EB1C421BEB060658EB94
:1010D0000202414146EA9E0601D5BDE80189B619E2
:1010E000524141EB0101A3F10103BDE801894FEA3F
:1010F00014454FEA114724EA054621EA074C05FB4F
:1011000007F406FB07F70CFB06F105FB0CFC11EBE3
:10111000074144EB17444FEA124711EB0C4144EBF3
:101120001C4422EA074C05FB07F206FB07F70CFB01
:1011300006F605FB0CFC16EB074642EB174216EBD6
:101140000C4642EB1C456A1854F1000148BF704739
:10115000B619524141EB0101A3F10103704795F02B
:10116000000F37D04FEA11424FEA144721EA0246F6
:1011700024EA074C02FB07F106FB07F70CFB06F419
:1011800002FB0CFC14EB074441EB17414FEA1547F7
:1011900014EB0C4441EB1C4125EA074C02FB07F51C
:1011A00006FB07F70CFB06F602FB0CFC16EB0746EA
:1011B00045EB174516EB0C4645EB1C42121951F155
:1011C000000148BF7047B619524141EB0101A3F13C
:1011D000010370474FEA14454FEA114724EA0546D8
:1011E00021EA074C05FB07F106FB07F70CFB06F2AB
:1011F0004FF0000605FB0CFC12EB074241EB1741D8
:1012000012EB0C4251EB1C4148BF7047921841EB66
:101210000101A3F10103704710B5012A05D103684C
:1012200001248C40234303600CE0036803F0E06377
:101230001BB1036823F0E0630360046801238B4063
:101240009C43046010BD10B503460C4603F110002A
:1012500050F8241012B101F0004101E001F080418A
:1012600009B1012010BD0020FCE72DE9F041044642
:101270000E460121080300F01FF8002020604FF403
:101280000017182000F034F8804606EB861505EBB1
:1012900048006900B0FBF1F0451E47EA05272760CA
:1012A000BDE8F081026822F0E0620260026842EA72
:1012B0000162026070470000012909D10A4A1268E0
:1012C0000A4B03401A43084BC43BC3F8C42009E04F
:1012D00041B9054A1268054B83431A40024BC43B8F
:1012E000C3F8C42070470000C4C00F40DEF7EFEF22
:1012F00070B506460D480468304600F019F80546FA
:1013000035B1012D06D0022D06D0032D08D105E000
:10131000042505E0012503E0022501E0082500BFC2
:1013200000BFB4FBF5F4204670BD000000000010C3
:101330000146202903D20A46064B186804E0A1F1B1
:101340002002044B1B1D186820FA02F303F003006F
:1013500070470000A8C10F4010B50446A27861781C
:10136000207800F05BFAE2786178207800F076FA75
:1013700022796178207800F039FA10BD20204B499D
:1013800008604B48D0F8A00100F0200030B100BF49
:101390004648006800F040000028F9D00320434987
:1013A0009C39086000204249C1F8A8013F490C312E
:1013B000086001203D49943908603E483C49843129
:1013C0000860AA203A498C31086055200860012045
:1013D000374980310860AA2035498C310860552092
:1013E0003349C1F88C0000BF31488830006800F0F4
:1013F00080600028F8D003202D4980310860AA20A1
:101400002B49C1F88C00552029498C31086000BF58
:1014100027488830006800F04070B0F1407FF7D175
:1014200023202349A4310860AA202149C1F8AC0037
:1014300055201F49AC31086001201D49A0310860CA
:10144000AA201B49AC31086055201949C1F8AC00ED
:1014500000BF1748A830006800F480600028F8D06A
:1014600003201349A0310860AA201149C1F8AC003B
:1014700055200F49AC31086000BF0D48A830006806
:1014800000F44070B0F5407FF7D10B480849C431F3
:10149000086000200649C1F8C8010846006820F429
:1014A000704040F48040086070470000A0C10F40C9
:1014B00000C00F4063000500DE872804490050EAA1
:1014C000C12018BF04204A0D18BF40F0010040F2AF
:1014D000FF72B2EB515F08BF40F00200012808BF65
:1014E0000520704730380A2801D2012070470020BB
:1014F000704701B502E00098401E00900098002857
:10150000F9D108BD00B5012000F00EF840F2DC5022
:10151000FFF7EFFF022000F007F80248FFF7E9FFAE
:1015200000BD000040420F0010B5044601201149E3
:10153000C865204600F03CF904200E4988659620D5
:10154000FFF7D7FF04200B49C8659620FFF7D1FFAE
:101550002107080E00F02CF9042006498865962022
:10156000FFF7C7FF04200349C86540F2DC50FFF7CE
:10157000C0FF10BD00C0092070B506460C46601EB5
:10158000C4B2012E06D0022E06D0032E08D0042E9F
:101590000ED109E0E5B20DE004F14000C5B209E06A
:1015A00004F11400C5B205E004F15400C5B201E035
:1015B000E5B200BF00BF45F08000FFF7B5FF40F285
:1015C000DC50FFF796FF70BD00B5F7202249086494
:1015D0000220C86540F2DC50FFF78BFF002000F0CE
:1015E000E7F8302000F0E4F804201B4988659620D5
:1015F000FFF77FFF04201849C86540F2DC50FFF771
:1016000078FF302000F0D4F8042013498865962034
:10161000FFF76FFF04201049C86540F2DC50FFF768
:1016200068FF202000F0C4F804200B49886596204C
:10163000FFF75FFF04200849C86540F2DC50FFF760
:1016400058FF2820FFF770FF0C20FFF76DFF40F2D6
:10165000DC50FFF74EFF00BD00C0092010B5044666
:10166000012011498865204600F0A2F804200E49A7
:1016700088659620FFF73DFF04200B49C86596203A
:10168000FFF737FF2107080E00F092F80420064903
:1016900088659620FFF72DFF04200349C86540F2B6
:1016A000DC50FFF726FF10BD00C0092030B505460D
:1016B0002C4604B930BD03E02078FFF7CFFF641C4F
:1016C00020780028F8D100BFF4E700001FB50024FF
:1016D0000025A046FFF778FFFFF714FF01208DF8E3
:1016E000020000208DF8040002208DF8030018206D
:1016F0008DF8010000208DF800006846FFF72CFEF1
:1017000022492348FFF7B1FD012211462048FFF787
:1017100083FD04210120FFF72FFF1EA0FFF7C6FF66
:1017200033E001211A48FFF7BDFD00BF0122114639
:101730001748FFF788FD0028F8D001211448FEF76C
:10174000D2FD0446204600F0B3F90746144900F0E4
:10175000C3F906464FF08B4100F0E8F80546114901
:10176000284600F0B9F9804607210220FFF704FF60
:10177000404600F0AFF8064632460B460AA102A8E2
:10178000FEF71CFD02A8FFF791FFCAE7400D03001A
:101790000040034054656D70657261747565720038
:1017A000CDCC4C400000C842543D25302E30660060
:1017B000F0210D4AD16500F0800109B180219165C9
:1017C00000F0400111B14021074A916500F020016D
:1017D00011B12021044A916500F0100111B11021CE
:1017E000014A91657047000000C0092030B50B46E2
:1017F0000949012A07D151F8204001259D402C4379
:1018000041F8204006E051F8204001259D40AC43BE
:1018100041F8204030BD000068C00240F0B50446E9
:101820000B461546194660000B4A102901D31039A2
:10183000401C52F820604FEA410C032707FA0CF7CE
:10184000BE4342F8206052F820604F0005FA07F7C7
:101850003E4342F82060F0BD00C00240F0B50446AF
:101860000B461546194660000B4A102901D3103962
:10187000401C52F820604FEA410C032707FA0CF78E
:10188000BE4342F8206052F820604F0005FA07F787
:101890003E4342F82060F0BD40C0024010B5002930
:1018A0000AD00878002807D005487844FFF7ACF83C
:1018B000002801D0002010BD0248784410BD00006F
:1018C0008E040000860400000808A0F500114FEA0D
:1018D0003101704743004FEAD30C4FEA3C0C4340C0
:1018E0001FBF40070CF1605113F0FE4F70471CF012
:1018F000006F03D100200CF0004170470CF0004352
:1019000043EA507010B540EACC0000F066F900BF21
:10191000000000924FEA0001FFF7D6BF4FF00041F0
:101920004FF00000A1F50021704700004FF47F0C3C
:101930001CEAD0121EBF1CEAD11392EA0C0F93EAE4
:101940000C0F00F0858090EA010F48BF42F48072CE
:1019500040F4000C41F400002CF07F4120F07F4067
:1019600000B58142A2EB03020FF2081CACEB504E13
:10197000C0F100009EF800E04FEA4E0E00FB0EFCA6
:1019800038BF49004FEA2C1C02F5FA020CFB0EF39B
:101990004FEACE1E4FEA112C4FEAC1210EEB635ED7
:1019A00042EB22420EFB0CFC4FEA1C5300FB0311DE
:1019B0004FEA112C4FEA01310EFB0CFC4FEADC4CD4
:1019C00000FB0C11C14228BF09184CEB03335DF832
:1019D00004EB10EB410143EBC250B2F57C0F38BF72
:1019E000704729D512F0F00F1CBF00F1C04000F085
:1019F00000407047008182838485868788898B8C2C
:101A00008D8E8F919293959697999A9C9D9FA0A267
:101A1000A3A5A7A8AAACAEB0B2B3B5B7B9BCBEC0B7
:101A2000C2C5C7C9CCCED1D4D7D9DCDFE2E6E9EC58
:101A3000F0F3F7FAFE0000004FEA400C0CF1807C56
:101A4000BCF17E4F28BF7047B0F1C04000F00BB929
:101A500090EA010F0CEAD11348BF42F4807262454C
:101A600038BF634507D213F47F0F16D080EA010018
:101A700000F00040704710B500F0AFF8097EFC3E62
:101A800000F005B880EA010000F00040704780EAED
:101A9000010000F0004000F0E6B812F47F0F04BF30
:101AA0000248704780EA010000F0DDB80000C07F06
:101AB000B0FA80F310FA03F2C3F19D030AD0D905FE
:101AC00001EB1220530638BF704700F1010008BF38
:101AD00020F00100704700004FF47F0C1CEAD01288
:101AE0001EBF1CEAD11392EA0C0F93EA0C0F00F010
:101AF000478090EA010F48BF42F480724FF0004CDB
:101B00004CEA00204CEA012102EB0302A0FB011386
:101B1000A2F50002002918BF43F001035B0028BFB3
:101B20004FEA330342EB22425FEA132C4CEBC250E4
:101B30002EBFBCEB436FB2F57C0F70474FEA036CCE
:101B4000BCF1004F08BF20F00100B2F57C0F38BF98
:101B500070470BD582F0FF0212F5803FC8BF704777
:101B600000F1C040D8BF00F00040704700F5000C05
:101B70005FEA4C0C48BF7047B0F1C04000F073B84A
:101B800090EA010F0CEAD11348BF42F4807262451B
:101B900038BF634504D280EA010000F0004070477E
:101BA00010B500F01AF800BF8900013E00F007B838
:101BB00000F009B85FEA410C5FEA1C6C08D080EACB
:101BC000010000F050B85FEA400C5FEA1C6CF6D1EF
:101BD0004FF00040A0F5800070470EF1020E2EF08D
:101BE000030E5EF8044B244204D44FEA4102B2F1E2
:101BF0007F4F11D84FEA4003B3F17F4F0CD80ED17D
:101C00004FEAD07CB2F17F4F0CEB4C0C0CF1020C84
:101C100008BF4CEBD17C04E04FF0080C01E04FEA28
:101C2000D17C0CEB4C0324FA03F404F00704B4F168
:101C3000040C06D20EEB840CBDE810404CF0010CF5
:101C40006047DFE80CF0070802024FF00040A0F503
:101C5000800010BD0846420018BFD2F1807288BFD4
:101C600000F0004010BDFF2141EAD050C005704790
:101C70000400000800000000000000020001000055
:101C80001000000002400000000000A00000000062
:101C900005400000000000C8000000000C400000EB
:101CA0000000409C00000000194000000020BCBE65
:101CB0000000000034400000BFC91B8E000000047B
:101CC000B5400000504BCFD06607E2CF01000000C6
:101CD0006C4100003E8251AADFEEA73401000000F3
:101CE000D9420000DCB5A0E23A301F97FFFFFFFFAA
:101CF000B4450000FD25A0C8E9A3C14FFFFFFFFFC9
:101D0000FF3F00000000008000000000FF3F0000D7
:101D10000000008000000000541D000000000010C2
:101D20000400000008010000581D0000040000101D
:101D300064020000240100001C00000043000000B9
:101D4000F8FFFFFF0C0000000E0000000F00000075
:081D50002E00000000E1F50582
:040000050000018175
:00000001FF
